:020000040800F2
:10000000E0060020CD010008D50100085D0B0008C6
:10001000ED0B0008310500081F1A00080000000061
:10002000000000000000000000000000DF010008E8
:10003000E101000800000000E3010008E5010008FC
:10004000E7010008E7010008E7010008E7010008F0
:10005000E7010008E7010008E7010008E7010008E0
:10006000E7010008E7010008E7010008E7010008D0
:10007000E7010008E7010008E7010008E7010008C0
:10008000E7010008E7010008E7010008E7010008B0
:10009000E7010008E7010008E7010008E7010008A0
:1000A000E7010008E7010008E7010008E701000890
:1000B000E7010008E7010008E7010008E701000880
:1000C000E7010008E7010008E7010008E701000870
:1000D000E7010008E7010008E7010008E701000860
:1000E000E7010008E7010008E7010008E701000850
:1000F000E7010008E7010008E7010008E701000840
:10010000E7010008E7010008E7010008E70100082F
:10011000E7010008E70100089D170008E701000853
:10012000E7010008E7010008E7010008E70100080F
:1001300000F002F800F03AF80AA090E8000C8244BF
:100140008344AAF10107DA4501D100F02FF8AFF29C
:10015000090EBAE80F0013F0010F18BFFB1A43F0A5
:10016000010318474019000060190000103A24BF2D
:1001700078C878C1FAD8520724BF30C830C144BF0C
:1001800004680C607047000000230024002500264E
:10019000103A28BF78C1FBD8520728BF30C148BFEA
:1001A0000B6070471FB51FBD10B510BD00F04EF9B4
:1001B0001146FFF7F7FF01F039FC00F06CF903B4CA
:1001C000FFF7F2FF03BC00F071F900000948804717
:1001D00009480047FEE7FEE7FEE7FEE7FEE7FEE729
:1001E000FEE7FEE7FEE7FEE704480549054A064B41
:1001F000704700003D17000831010008E0000020B2
:10020000E0060020E0020020E0020020431A28BFA0
:100210009A4240F26780032A1044114440F226803B
:1002200010F0030F1EBF11F8013D521E00F8013DF2
:1002300010F0030F7FF4F6AF11F0030300F0AA8073
:10024000083AC0F00B8051F8043D083A51F804CD4B
:1002500040F8043D40F804CDFFF7F3BF121D5CBF2A
:1002600051F8043D40F8043DAFF30080D20724BFAD
:1002700011F8013D11F801CD48BF11F8012C24BF40
:1002800000F8013D00F801CD48BF00F8012C70478F
:100290004FF0000200B5134694469646203922BF1F
:1002A000A0E80C50A0E80C50B1F12001BFF4F7AF6A
:1002B000090728BFA0E80C5048BF0CC05DF804EB4C
:1002C000890028BF40F8042B08BF704748BF20F8BA
:1002D000022B11F0804F18BF00F8012B70477047B8
:1002E00070477047032A40F2308010F0030C00F092
:1002F000158011F8013BBCF1020F624498BF11F860
:1003000001CB00F8013B38BF11F8013BA2F1040218
:1003100098BF00F801CB38BF00F8013B11F0030390
:1003200000F06280083AC0F0088051F8043B083AB7
:1003300051F804CBA0E80810F5E7121D5CBF51F896
:10034000043B40F8043BAFF30080D20724BF11F810
:10035000013B11F801CB48BF11F8012B24BF00F875
:10036000013B00F801CB48BF00F8012B7047431A4E
:1003700028BF9A4240F23880104410F0030F114415
:100380001EBF11F8013D521E00F8013D10F0030F91
:100390007FF4F6AF103AC0F00A8010B531E918507A
:1003A000103A20E91850BFF4F9AFBDE810405307E8
:1003B00024BF31E9081020E9081044BF51F8043D7A
:1003C00040F8043D12F0030F08BF7047D20728BF62
:1003D00031F8023D48BF11F8012C28BF20F8023D3A
:1003E00048BF00F8012C704710B5203AC0F00B80D0
:1003F000B1E81850203AA0E81850B1E81850A0E829
:100400001850BFF4F5AF5FEA027C24BFB1E8185082
:10041000A0E8185044BF18C918C0BDE810405FEAF2
:10042000827C24BF51F8043B40F8043B08BF70476E
:10043000D20728BF31F8023B48BF11F8012B28BF73
:1004400020F8023B48BF00F8012B7047754600F0CA
:1004500029F8AE4605006946534620F00700854658
:1004600018B020B5FFF7C0FEBDE820404FF00006F1
:100470004FF000074FF000084FF0000B21F007018C
:10048000AC46ACE8C009ACE8C009ACE8C009ACE8CF
:10049000C0098D4670470446AFF300802046FFF741
:1004A0008EFE00000048704780000020014918209F
:1004B000ABBEFEE7260002007047000010B500F05A
:1004C000B1F90121064801F075F9012211460448ED
:1004D00001F07FF90121024801F06FF910BD000021
:1004E0000010004010B501214FF0C05000F0F0FBAB
:1004F000012000F0E7FB10BD08B501460020009088
:10050000034800900098084400900098008808BDB7
:10051000006C004008B500220092044A0092009A44
:1005200002440092009A116008BD0000006C004077
:1005300003210420FFF7EEFF00F096FB70B533486F
:100540000078002860D0324800683249086032489C
:100550000088C0F30800304909884FF4C06202EAFD
:10056000A10108432A4909686FF30A010843284991
:1005700008602A48008800F003002849098843F6EB
:10058000FC7202EAA101084321490968244A11408A
:1005900041EAC0201E49086022480088402101EA43
:1005A000202020490988022202EAA11108431D499E
:1005B0000988C1F3001108431549096860F35F61B8
:1005C000134801600025002418E011480068114913
:1005D000096848400121A140084070B10120A040B5
:1005E0000B490968084008B1802000E04020204302
:1005F000C5B22946022000F0C1F8641C202CE4DBBF
:1006000000200249087000BF70BD00002E000020CD
:1006100014000020180000203000002032000020CC
:10062000FF0700FE3400002010B504461C48007887
:10063000E0B1207800F00F000F2813DA207800F0E6
:100640000F00184951F8200018B90B2000F0DFFE08
:1006500025E0207800F00F00124A52F820102046C2
:1006600088471CE00B2000F0D2FE18E0207800F054
:100670000F0038B1207800F00F000E280BD1B4F82D
:10068000010040B9207800F00F00064A52F820100F
:100690002046884703E00448007800F0B8FE10BD0B
:1006A0000A000020681A00080800002070B5024601
:1006B0000B4601214FE001EB8100294C04EB800047
:1006C00090F9000001EB8104254D05EB840494F9B9
:1006D0000140A04206D101EB81002C4604EB8000D2
:1006E0008078B0B301EB81041D4D05EB840494F9CF
:1006F0000000441E64B201EB8105194E06F8254046
:1007000001EB8104354605EB8404241D34F81040C8
:100710001480481C187001EB81002C4604EB80000B
:1007200090F90000002804DA072001EB810405F8A5
:10073000240001EB81000A4C04EB8000807830B18A
:10074000002001EB8104064D05EB8404A07001201C
:1007500070BDFFE7491E0029ADDA0020F8E7000070
:100760005800002010B500F065FB00F025F901F0FD
:10077000A1F801F089F800F097FA10BD30B50246F3
:10078000501E00EB8000264B03EB8000807808B100
:10079000002030BD531E03EB8303214C04EB830385
:1007A00093F90100431E5CB2531E03EB83031C4DFF
:1007B00005EB83035C70531E03EB83032C4604EBB1
:1007C00083031B1D23F81010501E00EB80002346EE
:1007D00003EB800090F90100002806DA0723501E81
:1007E00000EB800004EB80004370501E00EB8000A3
:1007F0000B4B03EB800090F90130501E00EB8000A2
:10080000074C04EB800090F90000834206D10123DD
:10081000501E00EB800004EB800083700120B8E7DD
:10082000580000200C48806800F003000B49087055
:100830000B49087008488068C0F3810009490870B6
:100840000949087004488068C0F3411007490870DE
:100850000749087070470000001001403700002071
:100860003600002039000020380000203B00002026
:100870003A0000200748006840F010000549086071
:1008800004481030006840F4E0200249103108604C
:100890007047000014ED00E02DE9F041024600250C
:1008A0000026002000230024002791F803C00CF04C
:1008B0000F0591F803C00CF0100CBCF1000F03D031
:1008C00091F802C04CEA050591F800C0BCF1000F98
:1008D00031D0146800202BE04FF0010C0CFA00F32B
:1008E000B1F800C00CEA03069E4220D183004FF00D
:1008F0000F0C0CFA03F7BC4305FA03FC4CEA0404A2
:1009000091F803C0BCF1280F06D14FF0010C0CFA8E
:1009100000FCC2F814C00AE091F803C0BCF1480F13
:1009200005D14FF0010C0CFA00FCC2F810C0401CBD
:100930000828D1D31460B1F800C0BCF1FF0F34DD3A
:10094000546800202EE000F1080C4FF0010808FA6E
:100950000CF3B1F800C00CEA03069E4221D18300DB
:100960004FF00F0C0CFA03F7BC4305FA03FC4CEAFA
:10097000040491F803C0BCF1280F05D100F1080C64
:1009800008FA0CF8C2F8148091F803C0BCF1480FC3
:1009900007D100F1080C4FF0010808FA0CF8C2F872
:1009A0001080401C0828CED35460BDE8F081014679
:1009B000886880B27047000008B54FF48060ADF8D9
:1009C000000004208DF8030069462A48FFF764FF01
:1009D0004FF40070ADF8000003208DF802001820DD
:1009E0008DF8030069462348FFF756FF41F6FF10D4
:1009F000ADF8000048208DF8030069461D48FFF758
:100A00004BFF4FF6F370ADF8000069461A48FFF748
:100A100043FF47F6FF70ADF8000069461748FFF73F
:100A20003BFF0320ADF8000069461548FFF734FF8F
:100A30004FF48070ADF8000003208DF802001820FC
:100A40008DF8030069460B48FFF726FF0420ADF838
:100A5000000003208DF8020010208DF80300694685
:100A60000748FFF719FF4FF480200549103108604F
:100A700008BD000000080140000C014000100140CA
:100A8000001401402DE9F04706464FF030090027D9
:100A90000025A8462B48008840F00400294908801A
:100AA00045E000BF202127480C3800F029FF00282E
:100AB000F8D024480C3800F09DFF044604F4807000
:100AC00058B10025A846002704F0F000302803D1D3
:100AD000E0B207463070751C29E005B927E0307890
:100AE00000F00F000F280DD0F01C854204D205F84D
:100AF000014B3819C7B219E0E0B2B84200D117E093
:100B0000002513E0701C854204D1E1B2F01C01EB1A
:100B1000000807E0454505D1E0B2B84200D107E042
:100B2000002504E005F8014B3819C7B200BFB8E74B
:100B300000BF0448008820F0040002490880A81B78
:100B4000BDE8F0870C38014010B50348FFF72FFFD0
:100B500000F0030010BD0000001401400621042035
:100B6000FFF7D8FC00F080F810B50446B4F8010097
:100B700020B1012810D002281AD114E04FF69C7140
:100B8000002000F04BFCFFF799FC01200B49087096
:100B90000021FFF7F3FD0FE0217801F00F0008219D
:100BA00000F03CFC08E00821054800F00BFC03E0E5
:100BB0000B2000F02CFC00BF00BF10BD0A0000207D
:100BC0000000002000200BE0072100EB8002064B14
:100BD00003EB8202517000EB800203F82210401CEC
:100BE0000228F1DB7047000058000020042108466D
:100BF000FFF790FC00F038F870B5002100230F22B9
:100C0000C47804B3154C246804F4E064C4F5E064CB
:100C1000210AC1F10403CA40447804FA03F184783C
:100C20001440214309010E4C0678A155047804F0C4
:100C30001F050124AC4005786D11AD0005F1E025DC
:100C4000C5F8004109E0047804F01F050124AC4018
:100C5000044D0678761145F8264070BD0CED00E095
:100C600000E400E080E100E000BF00BF00BFBFF390
:100C70004F8F00BF00BF00BF0948006800F4E0606C
:100C800008490843001D0649086000BF00BF00BFB7
:100C9000BFF34F8F00BF00BF00BF00BF00BFFDE725
:100CA0000CED00E00000FA0508B536208DF80000D4
:100CB00000208DF801008DF802006846FFF79CFFC8
:100CC00008BD0000014908627047000000000E42A4
:100CD00029B1064AD2690243044BDA6104E0034AAF
:100CE000D2698243014BDA61704700000010024074
:100CF00029B1064A92690243044B9A6104E0034A0F
:100D000092698243014B9A617047000000100240D3
:100D10000348406A40F08070014948627047000013
:100D20000010024030B500210022002400232D4D88
:100D30006D6805F00C0121B1042905D0082923D1E3
:100D400005E0294D056022E0274D05601FE0254D97
:100D50006D6805F47012234D6D6805F4803402252A
:100D600005EB92421CB9214D554305600BE01D4D2A
:100D70006D6805F400351DB11C4D5543056002E05A
:100D8000194D5543056002E0174D056000BF00BFD7
:100D9000144D6D6805F0F0010909154D6B5C05688F
:100DA000DD4045600F4D6D6805F4E061090A104DA6
:100DB0006B5C4568DD4085600A4D6D6805F46051E7
:100DC000C90A0B4D6B5C4568DD40C560054D6D681B
:100DD00005F44041890B074D6B5CC568B5FBF3F525
:100DE000056130BD0010024000127A0000093D008C
:100DF000420000205200002010B5014600220023CE
:100E000000204A11012A02D1094C236806E0022A77
:100E100002D1074C236A01E0054C636A01F01F020E
:100E2000012494401C400CB1012000E0002010BDC2
:100E30000010024010B5012144F23D00FFF758FFB9
:100E400001211020FFF744FF042000F001F810BD3D
:100E50000149C87170470000001002404C480088EA
:100E60004C4908804C48006841F6FF110840484949
:100E700008804A4800884A4908804A4800684FF676
:100E8000F371084045490880474800884749088071
:100E90004748806847F690410840434908803C48ED
:100EA00000883C49098888420AD04248007818B135
:100EB0000020414908701AE001203E49087016E000
:100EC0003C48007898B13C4801780078401C3A4A88
:100ED000107014290BD10020364908701146087093
:100EE0002B480088354908800120354908702B4877
:100EF00000882B49098888420AD03248007818B106
:100F00000020314908701AE001202E49087016E0CF
:100F10002C48007898B12C4801780078401C2A4A67
:100F2000107014290BD10020264908701146087052
:100F30001A480088254908800120214908701A486C
:100F400000881A49098888420AD02148007818B1D7
:100F50000020204908701AE001201D49087016E0A1
:100F60001B48007898B11B4801780078401C194A4A
:100F7000107014290BD10020154908701146087013
:100F8000094800881449088001200D4908707047FD
:100F90001C0000201E000020080801402000002046
:100FA00022000020080C0140240000202600002020
:100FB00000100140280000202B00002030000020FD
:100FC0002E000020290000202C00002032000020EC
:100FD0002A0000202D0000203400002010B5EC482D
:100FE000806800F00300EB490870E9488068C0F3AE
:100FF0008100E9490870E6488068C0F34110E7497C
:101000000870E3488068C0F30120E5490870E548AE
:10101000007800283CD0012828D0022814D00328CA
:1010200049D108460078022804D1DF480078401CE6
:10103000DD490870DA480078012804D1DA480078E0
:10104000401ED949087036E0D548007820B9D64806
:101050000078401CD4490870D1480078032804D196
:10106000D1480078401ED049087024E0CC48007870
:1010700020B9CD480078401ECB490870C848007898
:10108000032804D1C8480078401CC749087012E002
:10109000C3480078012804D1C3480078401CC249E5
:1010A0000870BF480078022804D1BF480078401E6D
:1010B000BD49087000BF00BFB9480078B949087041
:1010C000BA48007800283CD0012828D0022814D043
:1010D000032849D1AF480078022804D1B4480078E9
:1010E000401CB3490870AB480078012804D1B048CF
:1010F0000078401EAE49087036E0A648007820B956
:10110000AB480078401CAA490870A2480078032820
:1011100004D1A7480078401EA549087024E09D48E6
:10112000007820B9A2480078401EA149087099486B
:101130000078032804D19E480078401C9C49087020
:1011400012E094480078012804D199480078401CA6
:10115000974908708F480078022804D19448007895
:10116000401E9349087000BF00BF8A4800788F492D
:10117000087090480078E0B3012828D0022814D0E5
:1011800003284AD184480078022804D18A4800788C
:10119000401C8949087080480078012804D186489D
:1011A0000078401E8449087037E07B48007820B9F9
:1011B00081480078401C80490870774800780328EF
:1011C00004D17D480078401E7B49087025E07248B4
:1011D000007820B978480078401E774908706E483A
:1011E0000078032804D174480078401C72490870C4
:1011F00013E0FFE768480078012804D16E480078C2
:10120000401C6D49087064480078022804D16A487F
:101210000078401E6849087000BF00BF5E48007833
:101220006449087065480078E0B3012828D0022896
:1012300014D003284AD159480078022804D16048C4
:101240000078401C5E49087054480078012804D199
:101250005B480078401E5A49087037E04F480078D4
:1012600020B957480078401C554908704B48007811
:10127000032804D152480078401E5149087025E0E7
:101280004648007820B94E480078401E4C49087006
:1012900042480078032804D149480078401C484956
:1012A000087013E0FFE73D480078012804D1444866
:1012B0000078401C4249087038480078022804D160
:1012C0003F480078401E3E49087000BF00BF3348C9
:1012D00000783A49087000243348007818B1324841
:1012E000007808280ED13048007808B9072000E0BF
:1012F000062040F0C00421460220FFF73FFA0420F8
:10130000294908702A48007818B12948007804282B
:101310000FD100242648007808B9012000E0002001
:1013200040F0C00421460220FFF728FA022020499D
:1013300008702148007818B11F48007804280FD1A0
:1013400000241D48007808B9032000E0022040F086
:10135000C00421460220FFF711FA02201649087046
:101360001748007818B11648007804280FD10024D7
:101370001348007808B9052000E0042040F0C004BC
:1013800021460220FFF7FAF902200D49087010BD2E
:101390000010014037000020390000203B000020F1
:1013A0003D0000203C0000204100002036000020CD
:1013B0003E000020380000203F0000203A000020BE
:1013C0004000002030B5C1B005460C469DF8000035
:1013D00020F00F000F308DF800009DF8000020F085
:1013E000F00030308DF80000601EC0B28DF80100B2
:1013F00029788DF80210621E691C0DF10300FEF7BA
:1014000005FFA11C684600F073F841B030BD10B56F
:1014100004462146002000F001F810BD30B5C1B0EF
:1014200005460C469DF8000065F303008DF80000AA
:101430009DF8000020F0F00030308DF80000ADF88D
:1014400001400321684600F053F841B030BD000070
:1014500010B5FFF70FFAFFF745F87C20FFF7CCFC3B
:10146000012809D10420FFF747F81449087000212A
:101470000420FFF74FF81EE07B20FFF7BDFC01289A
:1014800004D07A20FFF7B8FC012803D101200B49D2
:10149000087010E07E20FFF7AFFC012804D07D200B
:1014A000FFF7AAFC012803D102200449087002E0DA
:1014B000072002490870FFF72BFC10BD0800002030
:1014C00010B50446B4F80100024908800020FFF777
:1014D0009EFF10BD1000002010B50446B4F80100B6
:1014E000024908800020FFF792FF10BD1200002083
:1014F0002DE9F04104460F46002600BF8021164822
:1015000000F0FEF90028F9D0267846F480711248E0
:1015100000F075FA01250FE000BF80210E4800F0B1
:10152000EFF90028F9D0605D3044C6B2615D0A4829
:1015300000F065FA681CC5B2BD42EDD300BF802142
:10154000054800F0DDF90028F9D03146024800F0E6
:1015500056FABDE8F08100000038014010B500F0F7
:101560003BF810BD0CB50020019000901948406870
:101570001849486008464068486008464068486026
:101580000846406820F4741048600846406840F4FB
:10159000801048600846006840F08070086000BF16
:1015A0000C48006800F000700028F9D00948406835
:1015B00020F00300074948600846406840F00200F8
:1015C000486000BF0348406800F00C000828F9D1CB
:1015D0000CBD0000001002400CB5002001900090EE
:1015E0003148006840F480302F49086000BF2E4821
:1015F000006800F4003000900198401C01900098B1
:1016000018B90198B0F5A06FF1D12748006800F42F
:10161000003010B10120009001E0002000900098FF
:1016200001283FD12148006840F010001F490860A0
:101630000846006820F0030008600846006808605B
:10164000194840681849486008464068486008469C
:10165000406848600846406820F47C1048600846AE
:10166000406840F4981048600846006840F0807078
:10167000086000BF0C48006800F000700028F9D036
:101680000948406820F00300074948600846406860
:1016900040F00200486000BF0348406800F00C00C2
:1016A0000828F9D10CBD00000010024000200240C3
:1016B00010B504461B48007870B360781A49097861
:1016C00088420DD11948007830B11948018819486D
:1016D0000078FFF7A3FE23E00020FFF798FE1FE04D
:1016E0001248007810B100201049087011491048C4
:1016F000FEF7DCFF48B10E4801880E480078FFF77E
:101700008DFE01200949087002E00020FFF77FFEEE
:1017100060780549087003E007480078FFF777FE16
:1017200010BD00000A0000200B0000200F00002068
:101730000C0000200E0000200800002010B5134807
:10174000006840F0010011490860084640681049EF
:1017500008400E494860084600680E4908400B4999
:1017600008600846006820F4802008600846406849
:1017700020F4FE0048604FF41F008860FFF7EEFE83
:101780004FF000600449086010BD000000100240E6
:101790000000FFF8FFFFF6FE08ED00E010B50121A4
:1017A000034800F007F8FFF759FBFFF717FC10BDDF
:1017B00000100040CA430282704721B1028842F003
:1017C0000102028004E002884FF6FE731A40028094
:1017D00070471AB183890B43838102E083898B436D
:1017E00083817047002202881D4B98420ED01D4B0A
:1017F00098420BD0B0F1804F08D01B4B984205D0D7
:101800001A4B984202D01A4B984204D14FF68F736C
:101810001A404B881A43174B984207D0164B9842F0
:1018200004D04FF6FF431A40CB881A4302808B88BE
:1018300083850B8803850A4B98420BD0094B98424D
:1018400008D00E4B984205D00D4B984202D00D4B5C
:10185000984201D10B7A03860123838270470000EE
:10186000002C01400034014000040040000800400A
:10187000000C0040001000400014004000400140F7
:1018800000440140004801400EB54FF4FA70ADF835
:1018900004001720ADF800000020ADF80600ADF8F8
:1018A00002008DF8080069460148FFF79BFF0EBD56
:1018B000001000401FB5684600F0A5F846F2A810D9
:1018C00000904FF48050ADF804000020ADF80800FF
:1018D0006946044800F022F80121024800F004F8AB
:1018E0001FBD00000038014021B1828942F400523E
:1018F000828104E082894DF6FF731A40828170472D
:1019000002460020B1F5007F00D100BF13880B40D4
:101910000BB1012000E00020704700002DE9F047E6
:1019200086B005460E460024A24600BFA146002709
:10193000B08900B100BF2F462C8A4CF6FF700440DE
:10194000F08804432C82AC894EF6F3100440B08832
:1019500031890843718908430443AC81AC8A4FF64E
:10196000FF400440B0890443AC8201A8FFF7DAF9D4
:101970001F48874202D1DDF810A001E0DDF80CA07D
:10198000A88900F4004040B10AEBCA0000EB0A103D
:1019900031684900B0FBF1F807E00AEBCA0000EB40
:1019A0000A1031688900B0FBF1F86420B8FBF0F050
:1019B00004012009642101FB1089A88900F400407A
:1019C00040B1322000EBC900B0FBF1F000F007009D
:1019D000044308E0322000EB09106421B0FBF1F071
:1019E00000F00F0004432C8106B0BDE8F087000032
:1019F0000038014001468888C0F308007047C1F3F1
:101A00000802828070474FF41651016000218180E6
:101A1000C18001810C214181002181817047052114
:101A20000420FEF777FDFFF71FF90000C2B0FFF7B3
:101A300099FDFFF70DFDFEF795FEFFF7C3F8FFF7E1
:101A400083F8084988804FF4827101A8FEF720FCD2
:101A500007E001A8FFF716F801A8FEF7E5FDFEF77D
:101A60006DFDF6E700000020B1160008C114000863
:101A7000D914000800000000000000000000000071
:101A80000000000000000000000000000000000056
:101A90000000000000000000000000000000000046
:101AA000690B0008C41A000800000020580000005C
:101AB0006C0100081C1B000858000020880600006C
:101AC0008801000801000000000000000000000084
:101AD0000000000000000000FFFFFFFFFFFFFFFF0E
:101AE000FF19FF19F3FFF3FF907C907C00000000CA
:101AF00000000000FF19F3FF907C030303030303BE
:101B000003030202020400000000010203040102B8
:0C1B100003040607080902040608000090
:0400000508000131BD
:00000001FF
