:020000040800F2
:10000000E0060020CD010008D5010008650A0008BF
:10001000F50A00082D0500081B1500080000000067
:10002000000000000000000000000000DF010008E8
:10003000E101000800000000E3010008E5010008FC
:10004000E7010008E7010008E7010008E7010008F0
:10005000E7010008E7010008E7010008E7010008E0
:10006000E7010008E7010008E7010008E7010008D0
:10007000E7010008E7010008E7010008E7010008C0
:10008000E7010008E7010008E7010008E7010008B0
:10009000E7010008E7010008E7010008E7010008A0
:1000A000E7010008E7010008E7010008E701000890
:1000B000E7010008E7010008E7010008E701000880
:1000C000E7010008E7010008E7010008E701000870
:1000D000E7010008E7010008E7010008E701000860
:1000E000E7010008E7010008E7010008E701000850
:1000F000E7010008E7010008E7010008E701000840
:10010000E7010008E7010008E7010008E70100082F
:10011000E7010008E701000829110008E7010008CD
:10012000E7010008E7010008E7010008E70100080F
:1001300000F002F800F03AF80AA090E8000C8244BF
:100140008344AAF10107DA4501D100F02FF8AFF29C
:10015000090EBAE80F0013F0010F18BFFB1A43F0A5
:10016000010318473C1400005C140000103A24BF3F
:1001700078C878C1FAD8520724BF30C830C144BF0C
:1001800004680C607047000000230024002500264E
:10019000103A28BF78C1FBD8520728BF30C148BFEA
:1001A0000B6070471FB51FBD10B510BD00F04EF9B4
:1001B0001146FFF7F7FF01F0B7F900F06CF903B44F
:1001C000FFF7F2FF03BC00F071F900000948804717
:1001D00009480047FEE7FEE7FEE7FEE7FEE7FEE729
:1001E000FEE7FEE7FEE7FEE704480549054A064B41
:1001F00070470000C910000831010008E00000202D
:10020000E0060020E0020020E0020020431A28BFA0
:100210009A4240F26780032A1044114440F226803B
:1002200010F0030F1EBF11F8013D521E00F8013DF2
:1002300010F0030F7FF4F6AF11F0030300F0AA8073
:10024000083AC0F00B8051F8043D083A51F804CD4B
:1002500040F8043D40F804CDFFF7F3BF121D5CBF2A
:1002600051F8043D40F8043DAFF30080D20724BFAD
:1002700011F8013D11F801CD48BF11F8012C24BF40
:1002800000F8013D00F801CD48BF00F8012C70478F
:100290004FF0000200B5134694469646203922BF1F
:1002A000A0E80C50A0E80C50B1F12001BFF4F7AF6A
:1002B000090728BFA0E80C5048BF0CC05DF804EB4C
:1002C000890028BF40F8042B08BF704748BF20F8BA
:1002D000022B11F0804F18BF00F8012B70477047B8
:1002E00070477047032A40F2308010F0030C00F092
:1002F000158011F8013BBCF1020F624498BF11F860
:1003000001CB00F8013B38BF11F8013BA2F1040218
:1003100098BF00F801CB38BF00F8013B11F0030390
:1003200000F06280083AC0F0088051F8043B083AB7
:1003300051F804CBA0E80810F5E7121D5CBF51F896
:10034000043B40F8043BAFF30080D20724BF11F810
:10035000013B11F801CB48BF11F8012B24BF00F875
:10036000013B00F801CB48BF00F8012B7047431A4E
:1003700028BF9A4240F23880104410F0030F114415
:100380001EBF11F8013D521E00F8013D10F0030F91
:100390007FF4F6AF103AC0F00A8010B531E918507A
:1003A000103A20E91850BFF4F9AFBDE810405307E8
:1003B00024BF31E9081020E9081044BF51F8043D7A
:1003C00040F8043D12F0030F08BF7047D20728BF62
:1003D00031F8023D48BF11F8012C28BF20F8023D3A
:1003E00048BF00F8012C704710B5203AC0F00B80D0
:1003F000B1E81850203AA0E81850B1E81850A0E829
:100400001850BFF4F5AF5FEA027C24BFB1E8185082
:10041000A0E8185044BF18C918C0BDE810405FEAF2
:10042000827C24BF51F8043B40F8043B08BF70476E
:10043000D20728BF31F8023B48BF11F8012B28BF73
:1004400020F8023B48BF00F8012B7047754600F0CA
:1004500029F8AE4605006946534620F00700854658
:1004600018B020B5FFF7C0FEBDE820404FF00006F1
:100470004FF000074FF000084FF0000B21F007018C
:10048000AC46ACE8C009ACE8C009ACE8C009ACE8CF
:10049000C0098D4670470446AFF300802046FFF741
:1004A0008EFE0000004870477C00002001491820A3
:1004B000ABBEFEE7260002007047000010B5012128
:1004C000064800F0F5FE01221146044800F0FFFE48
:1004D0000121024800F0EFFE10BD000000100040B6
:1004E00010B501214FF0C05000F076FB012000F064
:1004F0006DFB10BD08B50146002000900348009038
:100500000098084400900098008808BD006C0040E6
:1005100008B500220092044A0092009A0244009218
:10052000009A116008BD0000006C00400321042007
:10053000FFF7EEFF00F01CFB70B51D4800780028A7
:1005400035D01C4800681C4908601C480088C0F36E
:1005500008001A4909884FF4C06202EAA101084361
:100560001449098801F478410843124908600025BC
:10057000002416E00F4800680F490968484001212F
:10058000A140084060B10B48006808B1022000E0BB
:10059000012044EA8010C5B22946022000F0BAF8D2
:1005A000641C202CE6DB00200149087000BF70BDF0
:1005B0002200002014000020180000202400002049
:1005C00010B504461C480078E0B1207800F00F0018
:1005D0000F2813DA207800F00F00184951F8200096
:1005E00018B90B2000F0DAFB25E0207800F00F00AE
:1005F000124A52F82010204688471CE00B2000F0D9
:10060000CDFB18E0207800F00F0038B1207800F022
:100610000F000E280BD1B4F8010040B9207800F08B
:100620000F00064A52F820102046884703E004488D
:10063000007800F0B3FB10BD0A000020641500082C
:100640000800002070B502460B4603214FE001EB85
:100650008100294C04EB800090F9000001EB81043B
:10066000254D05EB840494F90140A04206D101EB2D
:1006700081002C4604EB80008078B0B301EB81044C
:100680001D4D05EB840494F90000441E64B201EB97
:100690008105194E06F8254001EB8104354605EB2E
:1006A0008404241D34F810401480481C187001EB99
:1006B00081002C4604EB800090F90000002804DA49
:1006C000072001EB810405F8240001EB81000A4CAE
:1006D00004EB8000807830B1002001EB8104064DEE
:1006E00005EB8404A070012070BDFFE7491E0029BE
:1006F000ADDA0020F8E700004000002010B500F05F
:100700001DFB00F0FDF800F053FE00F03BFE00F092
:100710004FFA10BD30B50246501E00EB8000264B4C
:1007200003EB8000807808B1002030BD531E03EB3E
:100730008303214C04EB830393F90100431E5CB255
:10074000531E03EB83031C4D05EB83035C70531EA8
:1007500003EB83032C4604EB83031B1D23F81010CB
:10076000501E00EB8000234603EB800090F901004F
:10077000002806DA0723501E00EB800004EB8000FF
:100780004370501E00EB80000B4B03EB800090F990
:100790000130501E00EB8000074C04EB800090F904
:1007A0000000834206D10123501E00EB800004EBC1
:1007B000800083700120B8E74000002007480068EF
:1007C00040F010000549086004481030006840F40B
:1007D000E0200249103108607047000014ED00E08D
:1007E0002DE9F041024600250026002000230024C8
:1007F000002791F803C00CF00F0591F803C00CF02E
:10080000100CBCF1000F03D091F802C04CEA0505B2
:1008100091F800C0BCF1000F31D0146800202BE02B
:100820004FF0010C0CFA00F3B1F800C00CEA03061B
:100830009E4220D183004FF00F0C0CFA03F7BC430B
:1008400005FA03FC4CEA040491F803C0BCF1280F3C
:1008500006D14FF0010C0CFA00FCC2F814C00AE0FB
:1008600091F803C0BCF1480F05D14FF0010C0CFA10
:1008700000FCC2F810C0401C0828D1D31460B1F8A5
:1008800000C0BCF1FF0F34DD546800202EE000F101
:10089000080C4FF0010808FA0CF3B1F800C00CEA9C
:1008A00003069E4221D183004FF00F0C0CFA03F790
:1008B000BC4305FA03FC4CEA040491F803C0BCF104
:1008C000280F05D100F1080C08FA0CF8C2F81480C2
:1008D00091F803C0BCF1480F07D100F1080C4FF0AC
:1008E000010808FA0CF8C2F81080401C0828CED382
:1008F0005460BDE8F0810146886880B2704700000E
:1009000008B54FF48060ADF8000004208DF80300B6
:1009100069461A48FFF764FF4FF40070ADF8000015
:1009200003208DF8020018208DF803006946134853
:10093000FFF756FF41F6FF10ADF8000048208DF894
:10094000030069460D48FFF74BFF4FF6F370ADF813
:10095000000069460A48FFF743FF47F6FF70ADF80D
:10096000000069460748FFF73BFF0320ADF8000091
:1009700069460548FFF734FF08BD00000008014044
:10098000000C014000100140001401402DE9F04727
:1009900006464FF0300900270025A8462B4800885E
:1009A00040F004002949088045E000BF2021274885
:1009B0000C3800F023FD0028F8D024480C3800F053
:1009C00097FD044604F4807058B10025A84600271E
:1009D00004F0F000302803D1E0B207463070751CF7
:1009E00029E005B927E0307800F00F000F280DD07E
:1009F000F01C854204D205F8014B3819C7B219E042
:100A0000E0B2B84200D117E0002513E0701C854227
:100A100004D1E1B2F01C01EB000807E0454505D127
:100A2000E0B2B84200D107E0002504E005F8014B30
:100A30003819C7B200BFB8E700BF0448008820F0EB
:100A4000040002490880A81BBDE8F0870C3801406B
:100A500010B50348FFF74FFF00F0030010BD000082
:100A60000014014006210420FFF752FD00F080F839
:100A700010B50446B4F8010020B1012810D00228B6
:100A80001AD114E04FF69C71002000F08EF9FFF7A8
:100A900015FD01200B4908700021FFF73BFE0FE018
:100AA000217801F00F00082100F07FF908E008210B
:100AB000054800F04EF903E00B2000F06FF900BF8D
:100AC00000BF10BD0A0000200000002000200BE045
:100AD000072100EB8002064B03EB8202517000EB12
:100AE000800203F82210401C0428F1DB704700004C
:100AF0004000002004210846FFF70AFD00F038F806
:100B000070B5002100230F22C47804B3154C24686B
:100B100004F4E064C4F5E064210AC1F10403CA40AE
:100B2000447804FA03F184781440214309010E4CFF
:100B30000678A155047804F01F050124AC4005781F
:100B40006D11AD0005F1E025C5F8004109E004781C
:100B500004F01F050124AC40044D0678761145F8D9
:100B6000264070BD0CED00E000E400E080E100E014
:100B700000BF00BF00BFBFF34F8F00BF00BF00BF6B
:100B80000948006800F4E06008490843001D064970
:100B9000086000BF00BF00BFBFF34F8F00BF00BFA2
:100BA00000BF00BF00BFFDE70CED00E00000FA054C
:100BB00008B536208DF8000000208DF801008DF872
:100BC00002006846FFF79CFF08BD0000014908626B
:100BD0007047000000000E4229B1064AD269024364
:100BE000044BDA6104E0034AD2698243014BDA61C3
:100BF000704700000010024029B1064A9269024382
:100C0000044B9A6104E0034A92698243014B9A6162
:100C100070470000001002400348406A40F08070B6
:100C200001494862704700000010024030B50021C1
:100C30000022002400232D4D6D6805F00C0121B128
:100C4000042905D0082923D105E0294D056022E0BB
:100C5000274D05601FE0254D6D6805F47012234D8A
:100C60006D6805F48034022505EB92421CB9214DD4
:100C7000554305600BE01D4D6D6805F400351DB151
:100C80001C4D5543056002E0194D5543056002E0D7
:100C9000174D056000BF00BF144D6D6805F0F001F1
:100CA0000909154D6B5C0568DD4045600F4D6D68A9
:100CB00005F4E061090A104D6B5C4568DD40856014
:100CC0000A4D6D6805F46051C90A0B4D6B5C4568AF
:100CD000DD40C560054D6D6805F44041890B074D49
:100CE0006B5CC568B5FBF3F5056130BD00100240D3
:100CF00000127A0000093D00290000203900002080
:100D000010B501460022002300204A11012A02D119
:100D1000094C236806E0022A02D1074C236A01E04D
:100D2000054C636A01F01F02012494401C400CB181
:100D3000012000E0002010BD0010024010B501218C
:100D400044F23D00FFF758FF01211020FFF744FF58
:100D500010BD30B5C1B005460C469DF8000020F02E
:100D60000F000F308DF800009DF8000020F0F0001B
:100D700030308DF80000601EC0B28DF80100297877
:100D80008DF80210621E691C0DF10300FFF73EFA98
:100D9000A11C684600F072F841B030BD10B50446A1
:100DA0002146002000F001F810BD30B5C1B0054665
:100DB0000C469DF8000065F303008DF800009DF8D7
:100DC000000020F0F00030308DF80000ADF8014058
:100DD0000321684600F052F841B030BD10B5FFF76E
:100DE000EDFCFFF77DFB7C20FFF78AFF012809D18E
:100DF0000420FFF77FFB1449087000210420FFF74F
:100E000087FB1EE07B20FFF77BFF012804D07A20C0
:100E1000FFF776FF012803D101200B49087010E08D
:100E20007E20FFF76DFF012804D07D20FFF768FFCB
:100E3000012803D102200449087002E0072002497A
:100E40000870FFF7E9FE10BD0800002010B5044649
:100E5000B4F80100024908800020FFF79FFF10BD91
:100E60001000002010B50446B4F8010002490880C3
:100E70000020FFF793FF10BD120000202DE9F04184
:100E800004460F46002600BF8021164800F0B6FA3F
:100E90000028F9D0267846F48071124800F02DFB26
:100EA00001250FE000BF80210E4800F0A7FA0028BE
:100EB000F9D0605D3044C6B2615D0A4800F01DFBA8
:100EC000681CC5B2BD42EDD300BF8021054800F0CB
:100ED00095FA0028F9D03146024800F00EFBBDE833
:100EE000F08100000038014010B500F03BF810BD63
:100EF0000CB50020019000901948406818494860DE
:100F000008464068486008464068486008464068AF
:100F100020F4741048600846406840F4801048602F
:100F20000846006840F08070086000BF0C48006808
:100F300000F000700028F9D00948406820F0030054
:100F4000074948600846406840F00200486000BF1A
:100F50000348406800F00C000828F9D10CBD0000DF
:100F6000001002400CB5002001900090314800684C
:100F700040F480302F49086000BF2E48006800F41C
:100F8000003000900198401C0190009818B9019819
:100F9000B0F5A06FF1D12748006800F4003010B11F
:100FA0000120009001E000200090009801283FD12E
:100FB0002148006840F010001F490860084600689A
:100FC00020F003000860084600680860194840687F
:100FD00018494860084640684860084640684860CC
:100FE0000846406820F47C1048600846406840F499
:100FF000981048600846006840F08070086000BFA4
:101000000C48006800F000700028F9D009484068DA
:1010100020F00300074948600846406840F002009D
:10102000486000BF0348406800F00C000828F9D170
:101030000CBD0000001002400020024010B5044624
:101040001B48007870B360781A49097888420DD13E
:101050001948007830B11948018819480078FFF71D
:10106000A4FE23E00020FFF799FE1FE0124800785D
:1010700010B100201049087011491048FFF7E2FA3A
:1010800048B10E4801880E480078FFF78EFE012017
:101090000949087002E00020FFF780FE60780549EA
:1010A000087003E007480078FFF778FE10BD0000E5
:1010B0000A0000200B0000200F0000200C00002080
:1010C0000E0000200800002010B51348006840F012
:1010D00001001149086008464068104908400E495F
:1010E0004860084600680E4908400B4908600846F9
:1010F000006820F4802008600846406820F4FE0064
:1011000048604FF41F008860FFF7EEFE4FF000606C
:101110000449086010BD0000001002400000FFF804
:10112000FFFFF6FE08ED00E010B50121544800F085
:10113000BFF854480088544908805448006841F674
:10114000FF1108404F490880084600884E49098829
:1011500088420AD04E48007818B100204D490870E6
:101160001AE001204A49087016E04948007898B111
:10117000484801780078401C464A107014290BD169
:10118000002043490870114608703E4800884249D3
:10119000088001204149087041488068C0F3471029
:1011A000404908704048007800283CD0012828D0E9
:1011B000022814D0032849D108460078022804D117
:1011C0003A480078401C39490870364800780128B0
:1011D00004D136480078401E3449087036E0314862
:1011E000007820B931480078401C304908702D48FB
:1011F0000078032804D12D480078401E2B49087040
:1012000024E02848007820B928480078401E274963
:10121000087024480078032804D124480078401C32
:101220002249087012E01F480078012804D11F48A5
:101230000078401C1D4908701A480078022804D123
:101240001A480078401E1949087000BF00BF1748AF
:10125000007818B115480078082810D100241348E8
:10126000007808B9052000E0042040F0C0042146C1
:101270000320FFF74FFA04200C49087000BF10BD8F
:10128000001000401C0000201E0000200808014043
:101290002000002021000020240000202200002047
:1012A0000010014027000020260000202800002018
:1012B000CA430282704721B1028842F001020280D3
:1012C00004E002884FF6FE731A40028070471AB19C
:1012D00083890B43838102E083898B438381704739
:1012E000002202881D4B98420ED01D4B98420BD015
:1012F000B0F1804F08D01B4B984205D01A4B984252
:1013000002D01A4B984204D14FF68F731A404B8883
:101310001A43174B984207D0164B984204D04FF609
:10132000FF431A40CB881A4302808B8883850B8841
:1013300003850A4B98420BD0094B984208D00E4BBC
:10134000984205D00D4B984202D00D4B984201D1E6
:101350000B7A03860123838270470000002C014032
:10136000003401400004004000080040000C004030
:1013700000100040001400400040014000440140C3
:10138000004801400EB54FF4FA70ADF80400172084
:10139000ADF800000020ADF80600ADF802008DF8B1
:1013A000080069460148FFF79BFF0EBD0010004092
:1013B0001FB5684600F0A5F846F2A81000904FF45B
:1013C0008050ADF804000020ADF8080069460448DC
:1013D00000F022F80121024800F004F81FBD0000CF
:1013E0000038014021B1828942F40052828104E038
:1013F00082894DF6FF731A408281704702460020B1
:10140000B1F5007F00D100BF13880B400BB1012064
:1014100000E00020704700002DE9F04786B0054647
:101420000E460024A24600BFA1460027B08900B1A5
:1014300000BF2F462C8A4CF6FF700440F08804430E
:101440002C82AC894EF6F3100440B08831890843F1
:10145000718908430443AC81AC8A4FF6FF400440D5
:10146000B0890443AC8201A8FFF7E0FB1F48874224
:1014700002D1DDF810A001E0DDF80CA0A88900F48D
:10148000004040B10AEBCA0000EB0A103168490085
:10149000B0FBF1F807E00AEBCA0000EB0A10316874
:1014A0008900B0FBF1F86420B8FBF0F004012009DA
:1014B000642101FB1089A88900F4004040B132206A
:1014C00000EBC900B0FBF1F000F00700044308E0B6
:1014D000322000EB09106421B0FBF1F000F00F00A6
:1014E00004432C8106B0BDE8F087000000380140BD
:1014F00001468888C0F308007047C1F30802828063
:1015000070474FF41651016000218180C180018134
:101510000C21418100218181704705210420FEF7C3
:10152000F7FFFFF725FB0000C2B0FFF7E1FCFFF774
:1015300055FCFFF7E3F8FFF7C9FAFFF789FA084906
:1015400088804FF4827101A8FEF7A2FE07E001A88F
:10155000FFF71CFA01A8FFF733F8FEF7EDFFF6E7F7
:10156000000000203D1000084D0E0008650E000828
:10157000000000000000000000000000000000006B
:10158000000000000000000000000000000000005B
:10159000000000000000000000000000710A0008C8
:1015A000C015000800000020400000006C01000889
:1015B0000016000840000020A00600008801000876
:1015C000010000000000000000000000000000001A
:1015D00000000000FFFFFFFFFFFFFFFFFF19FF19E3
:1015E00000000000FF1903030400000000010203D3
:1015F00004010203040607080902040608000000AB
:0400000508000131BD
:00000001FF
